{"abi":[{"type":"constructor","inputs":[],"stateMutability":"nonpayable"},{"type":"function","name":"addOrRemoveOperatorWhitelist","inputs":[{"name":"operator","type":"address","internalType":"address"},{"name":"isAdd","type":"bool","internalType":"bool"}],"outputs":[],"stateMutability":"nonpayable"},{"type":"function","name":"addOraclePodToFillWhitelist","inputs":[{"name":"oraclePod","type":"address","internalType":"contract IOraclePod"}],"outputs":[],"stateMutability":"nonpayable"},{"type":"function","name":"aggregatorAddress","inputs":[],"outputs":[{"name":"","type":"address","internalType":"address"}],"stateMutability":"view"},{"type":"function","name":"blsApkRegistry","inputs":[],"outputs":[{"name":"","type":"address","internalType":"contract IBLSApkRegistry"}],"stateMutability":"view"},{"type":"function","name":"confirmBatchId","inputs":[],"outputs":[{"name":"","type":"uint256","internalType":"uint256"}],"stateMutability":"view"},{"type":"function","name":"deRegisterOperator","inputs":[],"outputs":[],"stateMutability":"nonpayable"},{"type":"function","name":"fillPricesWithSignature","inputs":[{"name":"oraclePod","type":"address","internalType":"contract IOraclePod"},{"name":"priceBatch","type":"tuple","internalType":"struct IOracleManager.OraclePriceBatch","components":[{"name":"prices","type":"uint256[]","internalType":"uint256[]"},{"name":"weights","type":"uint256[]","internalType":"uint256[]"},{"name":"blockHash","type":"bytes32","internalType":"bytes32"},{"name":"blockNumber","type":"uint256","internalType":"uint256"},{"name":"msgHash","type":"bytes32","internalType":"bytes32"}]},{"name":"oracleNonSignerAndSignature","type":"tuple","internalType":"struct IBLSApkRegistry.OracleNonSignerAndSignature","components":[{"name":"nonSignerPubkeys","type":"tuple[]","internalType":"struct BN254.G1Point[]","components":[{"name":"X","type":"uint256","internalType":"uint256"},{"name":"Y","type":"uint256","internalType":"uint256"}]},{"name":"apkG2","type":"tuple","internalType":"struct BN254.G2Point","components":[{"name":"X","type":"uint256[2]","internalType":"uint256[2]"},{"name":"Y","type":"uint256[2]","internalType":"uint256[2]"}]},{"name":"sigma","type":"tuple","internalType":"struct BN254.G1Point","components":[{"name":"X","type":"uint256","internalType":"uint256"},{"name":"Y","type":"uint256","internalType":"uint256"}]},{"name":"totalStake","type":"uint256","internalType":"uint256"}]}],"outputs":[],"stateMutability":"nonpayable"},{"type":"function","name":"fillSymbolPriceWithSignature","inputs":[{"name":"oraclePod","type":"address","internalType":"contract IOraclePod"},{"name":"oracleBatch","type":"tuple","internalType":"struct IOracleManager.OracleBatch","components":[{"name":"symbolPrice","type":"string","internalType":"string"},{"name":"blockHash","type":"bytes32","internalType":"bytes32"},{"name":"blockNumber","type":"uint256","internalType":"uint256"},{"name":"msgHash","type":"bytes32","internalType":"bytes32"}]},{"name":"oracleNonSignerAndSignature","type":"tuple","internalType":"struct IBLSApkRegistry.OracleNonSignerAndSignature","components":[{"name":"nonSignerPubkeys","type":"tuple[]","internalType":"struct BN254.G1Point[]","components":[{"name":"X","type":"uint256","internalType":"uint256"},{"name":"Y","type":"uint256","internalType":"uint256"}]},{"name":"apkG2","type":"tuple","internalType":"struct BN254.G2Point","components":[{"name":"X","type":"uint256[2]","internalType":"uint256[2]"},{"name":"Y","type":"uint256[2]","internalType":"uint256[2]"}]},{"name":"sigma","type":"tuple","internalType":"struct BN254.G1Point","components":[{"name":"X","type":"uint256","internalType":"uint256"},{"name":"Y","type":"uint256","internalType":"uint256"}]},{"name":"totalStake","type":"uint256","internalType":"uint256"}]}],"outputs":[],"stateMutability":"nonpayable"},{"type":"function","name":"initialize","inputs":[{"name":"_initialOwner","type":"address","internalType":"address"},{"name":"_blsApkRegistry","type":"address","internalType":"address"},{"name":"_aggregatorAddress","type":"address","internalType":"address"}],"outputs":[],"stateMutability":"nonpayable"},{"type":"function","name":"operatorWhitelist","inputs":[{"name":"","type":"address","internalType":"address"}],"outputs":[{"name":"","type":"bool","internalType":"bool"}],"stateMutability":"view"},{"type":"function","name":"owner","inputs":[],"outputs":[{"name":"","type":"address","internalType":"address"}],"stateMutability":"view"},{"type":"function","name":"podIsWhitelistedForFill","inputs":[{"name":"","type":"address","internalType":"contract IOraclePod"}],"outputs":[{"name":"","type":"bool","internalType":"bool"}],"stateMutability":"view"},{"type":"function","name":"registerOperator","inputs":[{"name":"nodeUrl","type":"string","internalType":"string"}],"outputs":[],"stateMutability":"nonpayable"},{"type":"function","name":"removeOraclePodToFillWhitelist","inputs":[{"name":"oraclePod","type":"address","internalType":"contract IOraclePod"}],"outputs":[],"stateMutability":"nonpayable"},{"type":"function","name":"renounceOwnership","inputs":[],"outputs":[],"stateMutability":"nonpayable"},{"type":"function","name":"setAggregatorAddress","inputs":[{"name":"_aggregatorAddress","type":"address","internalType":"address"}],"outputs":[],"stateMutability":"nonpayable"},{"type":"function","name":"transferOwnership","inputs":[{"name":"newOwner","type":"address","internalType":"address"}],"outputs":[],"stateMutability":"nonpayable"},{"type":"event","name":"Initialized","inputs":[{"name":"version","type":"uint64","indexed":false,"internalType":"uint64"}],"anonymous":false},{"type":"event","name":"OperatorDeRegistered","inputs":[{"name":"operator","type":"address","indexed":false,"internalType":"address"}],"anonymous":false},{"type":"event","name":"OperatorRegistered","inputs":[{"name":"operator","type":"address","indexed":true,"internalType":"address"},{"name":"nodeUrl","type":"string","indexed":false,"internalType":"string"}],"anonymous":false},{"type":"event","name":"OraclePodAddedToFillWhitelist","inputs":[{"name":"oralePod","type":"address","indexed":false,"internalType":"contract IOraclePod"}],"anonymous":false},{"type":"event","name":"OraclePodRemoveToFillWhitelist","inputs":[{"name":"oralePod","type":"address","indexed":false,"internalType":"contract IOraclePod"}],"anonymous":false},{"type":"event","name":"OwnershipTransferred","inputs":[{"name":"previousOwner","type":"address","indexed":true,"internalType":"address"},{"name":"newOwner","type":"address","indexed":true,"internalType":"address"}],"anonymous":false},{"type":"event","name":"PricesSubmitted","inputs":[{"name":"batchId","type":"uint256","indexed":false,"internalType":"uint256"},{"name":"aggregatedPrice","type":"uint256","indexed":false,"internalType":"uint256"},{"name":"nodeCount","type":"uint256","indexed":false,"internalType":"uint256"},{"name":"signatoryRecordHash","type":"bytes32","indexed":false,"internalType":"bytes32"}],"anonymous":false},{"type":"event","name":"VerifyOracleSig","inputs":[{"name":"batchId","type":"uint256","indexed":false,"internalType":"uint256"},{"name":"totalStaking","type":"uint256","indexed":false,"internalType":"uint256"},{"name":"signatoryRecordHash","type":"bytes32","indexed":false,"internalType":"bytes32"},{"name":"marketPrice","type":"string","indexed":false,"internalType":"string"}],"anonymous":false},{"type":"error","name":"InvalidInitialization","inputs":[]},{"type":"error","name":"NotInitializing","inputs":[]},{"type":"error","name":"OwnableInvalidOwner","inputs":[{"name":"owner","type":"address","internalType":"address"}]},{"type":"error","name":"OwnableUnauthorizedAccount","inputs":[{"name":"account","type":"address","internalType":"address"}]}],"bytecode":{"object":"0x608060405234801561001057600080fd5b5061001961001e565b6100d0565b7ff0c57e16840df040f15088dc2f81fe391c3923bec73e23a9662efc9c229c6a00805468010000000000000000900460ff161561006e5760405163f92ee8a960e01b815260040160405180910390fd5b80546001600160401b03908116146100cd5780546001600160401b0319166001600160401b0390811782556040519081527fc7f505b2f371ae2175ee4913f4499e1f2633a7b5936321eed1cdaeb6115181d29060200160405180910390a15b50565b611778806100df6000396000f3fe608060405234801561001057600080fd5b506004361061010b5760003560e01c80638c76d2bd116100a2578063bc5db18e11610071578063bc5db18e1461023e578063c0c53b8b14610251578063e03c863214610264578063f2fde38b14610287578063fa5db51b1461029a57600080fd5b80638c76d2bd146101dc5780638da5cb5b146101f3578063a2a2111614610223578063b9a0634d1461023657600080fd5b806347b32448116100de57806347b324481461019b5780635df45946146101ae578063715018a6146101c15780637943b99f146101c957600080fd5b8063097c4af11461011057806310659b7b14610125578063380bbe53146101385780633fd407d414610168575b600080fd5b61012361011e366004610eff565b6102ad565b005b6101236101333660046111c5565b6103c6565b60025461014b906001600160a01b031681565b6040516001600160a01b0390911681526020015b60405180910390f35b61018b610176366004611243565b60036020526000908152604090205460ff1681565b604051901515815260200161015f565b6101236101a9366004611243565b610682565b60005461014b906001600160a01b031681565b610123610702565b6101236101d7366004611243565b610716565b6101e560015481565b60405190815260200161015f565b7f9016d09d72d40fdae2fd8ceac6b6234c7706214fd39c1cd1e609a0528c199300546001600160a01b031661014b565b610123610231366004611243565b61079b565b610123610816565b61012361024c366004611267565b61091b565b61012361025f3660046112b8565b610aeb565b61018b610272366004611243565b60046020526000908152604090205460ff1681565b610123610295366004611243565b610c18565b6101236102a8366004611303565b610c56565b3360009081526004602052604090205460ff166103225760405162461bcd60e51b815260206004820152602860248201527f4f7261636c654d616e616765723a206e6f207065726d697373696f6e20746f206044820152673932b3b4b9ba32b960c11b60648201526084015b60405180910390fd5b6000546040516303682a4560e41b81523360048201526001600160a01b0390911690633682a45090602401600060405180830381600087803b15801561036757600080fd5b505af115801561037b573d6000803e3d6000fd5b50505050336001600160a01b03167f11a85ea4a40584362c3d9c17685709a2e02b466ac78d5eb00b6aff73d90f580583836040516103ba929190611341565b60405180910390a25050565b6002546001600160a01b031633146103f05760405162461bcd60e51b815260040161031990611370565b6001600160a01b038316600090815260036020526040902054839060ff1661042a5760405162461bcd60e51b8152600401610319906113b9565b60006104368480611401565b9050116104855760405162461bcd60e51b815260206004820152601b60248201527f4f7261636c654d616e616765723a20656d7074792070726963657300000000006044820152606401610319565b6104926020840184611401565b905061049e8480611401565b9050146104ed5760405162461bcd60e51b815260206004820152601e60248201527f4f7261636c654d616e616765723a206c656e677468206d69736d6174636800006044820152606401610319565b6000805460405163063dfbcb60e21b815282916001600160a01b0316906318f7ef2c9061052a9060808901359060608a013590899060040161149d565b6040805180830381865afa158015610546573d6000803e3d6000fd5b505050506040513d601f19601f8201168201806040525081019061056a919061155a565b9092509050600061059061057e8780611401565b61058b60208a018a611401565b610d01565b90506001600160a01b0387166304e93f6e6105ab8880611401565b6105b860208b018b611401565b6040518563ffffffff1660e01b81526004016105d794939291906115b0565b600060405180830381600087803b1580156105f157600080fd5b505af1158015610605573d6000803e3d6000fd5b5050600180547fbc192003fc5fd7ea4fcc4efea093a25e49bc8529fcf435c1e423118c5e5f221593509150600061063b836115f8565b909155508261064a8980611401565b60405161067194939250879093845260208401929092526040830152606082015260800190565b60405180910390a150505050505050565b61068a610db0565b6001600160a01b0381166106e05760405162461bcd60e51b815260206004820152601b60248201527f4f7261636c654d616e616765723a207a65726f206164647265737300000000006044820152606401610319565b600280546001600160a01b0319166001600160a01b0392909216919091179055565b61070a610db0565b6107146000610e0b565b565b6002546001600160a01b031633146107405760405162461bcd60e51b815260040161031990611370565b6001600160a01b038116600081815260036020908152604091829020805460ff1916600117905590519182527f7da7409f8db3ec60d78c584483d3becc82a2c4891002c9eb6d4d41f2983f46f391015b60405180910390a150565b6002546001600160a01b031633146107c55760405162461bcd60e51b815260040161031990611370565b6001600160a01b038116600081815260036020908152604091829020805460ff1916905590519182527f760913fd095411dc9e223313517b8b336ac92746a9efaf1760ce1b4590bb45b99101610790565b3360009081526004602052604090205460ff166108885760405162461bcd60e51b815260206004820152602a60248201527f4f7261636c654d616e616765723a206e6f207065726d697373696f6e20746f206044820152693232b932b3b4b9ba32b960b11b6064820152608401610319565b600054604051636c67cc6560e11b81523360048201526001600160a01b039091169063d8cf98ca90602401600060405180830381600087803b1580156108cd57600080fd5b505af11580156108e1573d6000803e3d6000fd5b50506040513381527fb2c38c6252ee2d17f80059fb47a790e20f7bd75e7ba577685375e5484f412d739250602001905060405180910390a1565b6002546001600160a01b031633146109455760405162461bcd60e51b815260040161031990611370565b6001600160a01b038316600090815260036020526040902054839060ff1661097f5760405162461bcd60e51b8152600401610319906113b9565b600080546040805163063dfbcb60e21b815283926001600160a01b0316916318f7ef2c916109bc9160608a013591908a013590899060040161149d565b6040805180830381865afa1580156109d8573d6000803e3d6000fd5b505050506040513d601f19601f820116820180604052508101906109fc919061155a565b90925090506000610a0d8680611611565b8080601f01602080910402602001604051908101604052809392919081815260200183838082843760009201919091525050604051630a2ee61b60e21b8152929350506001600160a01b038916916328bb986c9150610a7090849060040161169e565b600060405180830381600087803b158015610a8a57600080fd5b505af1158015610a9e573d6000803e3d6000fd5b5050600180547f2f8b976598490503c5965cf40bc6629717a2aa0b1c5be9b4b4d6570a9dc6a80e935091506000610ad4836115f8565b9190505584848460405161067194939291906116b1565b6000610af5610e7c565b805490915060ff600160401b820416159067ffffffffffffffff16600081158015610b1d5750825b905060008267ffffffffffffffff166001148015610b3a5750303b155b905081158015610b48575080155b15610b665760405163f92ee8a960e01b815260040160405180910390fd5b845467ffffffffffffffff191660011785558315610b9057845460ff60401b1916600160401b1785555b610b9988610ea7565b600080546001600160a01b03808a166001600160a01b031992831617835560028054918a16919092161790556001558315610c0e57845460ff60401b19168555604051600181527fc7f505b2f371ae2175ee4913f4499e1f2633a7b5936321eed1cdaeb6115181d29060200160405180910390a15b5050505050505050565b610c20610db0565b6001600160a01b038116610c4a57604051631e4fbdf760e01b815260006004820152602401610319565b610c5381610e0b565b50565b6002546001600160a01b03163314610c805760405162461bcd60e51b815260040161031990611370565b6001600160a01b038216610cd65760405162461bcd60e51b815260206004820152601b60248201527f4f7261636c654d616e616765723a207a65726f206164647265737300000000006044820152606401610319565b6001600160a01b03919091166000908152600460205260409020805460ff1916911515919091179055565b60008080805b86811015610d8557858582818110610d2157610d216116e0565b90506020020135888883818110610d3a57610d3a6116e0565b90506020020135610d4b91906116f6565b610d55908461170d565b9250858582818110610d6957610d696116e0565b9050602002013582610d7b919061170d565b9150600101610d07565b5080600003610d9957600092505050610da8565b610da38183611720565b925050505b949350505050565b33610de27f9016d09d72d40fdae2fd8ceac6b6234c7706214fd39c1cd1e609a0528c199300546001600160a01b031690565b6001600160a01b0316146107145760405163118cdaa760e01b8152336004820152602401610319565b7f9016d09d72d40fdae2fd8ceac6b6234c7706214fd39c1cd1e609a0528c19930080546001600160a01b031981166001600160a01b03848116918217845560405192169182907f8be0079c531659141344cd1fd0a4f28419497f9722a3daafe3b4186f6b6457e090600090a3505050565b6000807ff0c57e16840df040f15088dc2f81fe391c3923bec73e23a9662efc9c229c6a005b92915050565b610eaf610eb8565b610c5381610edd565b610ec0610ee5565b61071457604051631afcd79f60e31b815260040160405180910390fd5b610c20610eb8565b6000610eef610e7c565b54600160401b900460ff16919050565b60008060208385031215610f1257600080fd5b823567ffffffffffffffff80821115610f2a57600080fd5b818501915085601f830112610f3e57600080fd5b813581811115610f4d57600080fd5b866020828501011115610f5f57600080fd5b60209290920196919550909350505050565b6001600160a01b0381168114610c5357600080fd5b634e487b7160e01b600052604160045260246000fd5b6040805190810167ffffffffffffffff81118282101715610fbf57610fbf610f86565b60405290565b6040516080810167ffffffffffffffff81118282101715610fbf57610fbf610f86565b604051601f8201601f1916810167ffffffffffffffff8111828210171561101157611011610f86565b604052919050565b60006040828403121561102b57600080fd5b611033610f9c565b9050813581526020820135602082015292915050565b600082601f83011261105a57600080fd5b611062610f9c565b80604084018581111561107457600080fd5b845b8181101561108e578035845260209384019301611076565b509095945050505050565b6000608082840312156110ab57600080fd5b6110b3610f9c565b90506110bf8383611049565b81526110ce8360408401611049565b602082015292915050565b600061010082840312156110ec57600080fd5b6110f4610fc5565b9050813567ffffffffffffffff8082111561110e57600080fd5b818401915084601f83011261112257600080fd5b813560208282111561113657611136610f86565b611144818360051b01610fe8565b828152818101935060069290921b84018101918783111561116457600080fd5b938101935b8285101561118d5761117b8886611019565b84528184019350604085019450611169565b855261119b87878301611099565b81860152505050506111b08360a08401611019565b604082015260e0820135606082015292915050565b6000806000606084860312156111da57600080fd5b83356111e581610f71565b9250602084013567ffffffffffffffff8082111561120257600080fd5b9085019060a0828803121561121657600080fd5b9092506040850135908082111561122c57600080fd5b50611239868287016110d9565b9150509250925092565b60006020828403121561125557600080fd5b813561126081610f71565b9392505050565b60008060006060848603121561127c57600080fd5b833561128781610f71565b9250602084013567ffffffffffffffff808211156112a457600080fd5b908501906080828803121561121657600080fd5b6000806000606084860312156112cd57600080fd5b83356112d881610f71565b925060208401356112e881610f71565b915060408401356112f881610f71565b809150509250925092565b6000806040838503121561131657600080fd5b823561132181610f71565b91506020830135801515811461133657600080fd5b809150509250929050565b60208152816020820152818360408301376000818301604090810191909152601f909201601f19160101919050565b60208082526029908201527f4f7261636c654d616e616765723a206e6f74207468652061676772656761746f60408201526872206164647265737360b81b606082015260800190565b60208082526028908201527f4f7261636c654d616e616765723a206f7261636c65506f64206e6f74207768696040820152671d195b1a5cdd195960c21b606082015260800190565b6000808335601e1984360301811261141857600080fd5b83018035915067ffffffffffffffff82111561143357600080fd5b6020019150600581901b360382131561144b57600080fd5b9250929050565b8060005b6002811015611475578151845260209384019390910190600101611456565b50505050565b611486828251611452565b60208101516114986040840182611452565b505050565b838152600060208460208401526040606060408501526101608401855161010080606088015282825180855261018089019150602084019450600093505b8084101561150c576114f882865180518252602090810151910152565b9386019360019390930192908501906114db565b5060208901519550611521608089018761147b565b6040890151955061153e8289018780518252602090810151910152565b6060890151610140890152809650505050505050949350505050565b6000806040838503121561156d57600080fd5b505080516020909101519092909150565b81835260006001600160fb1b0383111561159757600080fd5b8260051b80836020870137939093016020019392505050565b6040815260006115c460408301868861157e565b82810360208401526115d781858761157e565b979650505050505050565b634e487b7160e01b600052601160045260246000fd5b60006001820161160a5761160a6115e2565b5060010190565b6000808335601e1984360301811261162857600080fd5b83018035915067ffffffffffffffff82111561164357600080fd5b60200191503681900382131561144b57600080fd5b6000815180845260005b8181101561167e57602081850181015186830182015201611662565b506000602082860101526020601f19601f83011685010191505092915050565b6020815260006112606020830184611658565b8481528360208201528260408201526080606082015260006116d66080830184611658565b9695505050505050565b634e487b7160e01b600052603260045260246000fd5b8082028115828204841417610ea157610ea16115e2565b80820180821115610ea157610ea16115e2565b60008261173d57634e487b7160e01b600052601260045260246000fd5b50049056fea26469706673582212207bbe32c6c458a5d0f50e7779788c9b7a2e5783a901f539d8721ab1a210a9ec4364736f6c63430008160033","linkReferences":{}},"methodIdentifiers":{"addOrRemoveOperatorWhitelist(address,bool)":"fa5db51b","addOraclePodToFillWhitelist(address)":"7943b99f","aggregatorAddress()":"380bbe53","blsApkRegistry()":"5df45946","confirmBatchId()":"8c76d2bd","deRegisterOperator()":"b9a0634d","fillPricesWithSignature(address,(uint256[],uint256[],bytes32,uint256,bytes32),((uint256,uint256)[],(uint256[2],uint256[2]),(uint256,uint256),uint256))":"10659b7b","fillSymbolPriceWithSignature(address,(string,bytes32,uint256,bytes32),((uint256,uint256)[],(uint256[2],uint256[2]),(uint256,uint256),uint256))":"bc5db18e","initialize(address,address,address)":"c0c53b8b","operatorWhitelist(address)":"e03c8632","owner()":"8da5cb5b","podIsWhitelistedForFill(address)":"3fd407d4","registerOperator(string)":"097c4af1","removeOraclePodToFillWhitelist(address)":"a2a21116","renounceOwnership()":"715018a6","setAggregatorAddress(address)":"47b32448","transferOwnership(address)":"f2fde38b"},"storageLayout":{"storage":[{"astId":48931,"contract":"src/core/OracleManager.sol:OracleManager","label":"blsApkRegistry","offset":0,"slot":"0","type":"t_contract(IBLSApkRegistry)49063"},{"astId":48933,"contract":"src/core/OracleManager.sol:OracleManager","label":"confirmBatchId","offset":0,"slot":"1","type":"t_uint256"},{"astId":48935,"contract":"src/core/OracleManager.sol:OracleManager","label":"aggregatorAddress","offset":0,"slot":"2","type":"t_address"},{"astId":48940,"contract":"src/core/OracleManager.sol:OracleManager","label":"podIsWhitelistedForFill","offset":0,"slot":"3","type":"t_mapping(t_contract(IOraclePod)49274,t_bool)"},{"astId":48944,"contract":"src/core/OracleManager.sol:OracleManager","label":"operatorWhitelist","offset":0,"slot":"4","type":"t_mapping(t_address,t_bool)"}],"types":{"t_address":{"encoding":"inplace","label":"address","numberOfBytes":"20"},"t_bool":{"encoding":"inplace","label":"bool","numberOfBytes":"1"},"t_contract(IBLSApkRegistry)49063":{"encoding":"inplace","label":"contract IBLSApkRegistry","numberOfBytes":"20"},"t_contract(IOraclePod)49274":{"encoding":"inplace","label":"contract IOraclePod","numberOfBytes":"20"},"t_mapping(t_address,t_bool)":{"encoding":"mapping","key":"t_address","label":"mapping(address => bool)","numberOfBytes":"32","value":"t_bool"},"t_mapping(t_contract(IOraclePod)49274,t_bool)":{"encoding":"mapping","key":"t_contract(IOraclePod)49274","label":"mapping(contract IOraclePod => bool)","numberOfBytes":"32","value":"t_bool"},"t_uint256":{"encoding":"inplace","label":"uint256","numberOfBytes":"32"}}},"id":51}