{"abi":[{"type":"constructor","inputs":[],"stateMutability":"nonpayable"},{"type":"function","name":"PRICE_DECIMALS","inputs":[],"outputs":[{"name":"","type":"uint8","internalType":"uint8"}],"stateMutability":"view"},{"type":"function","name":"aggregatedPrice","inputs":[],"outputs":[{"name":"","type":"uint256","internalType":"uint256"}],"stateMutability":"view"},{"type":"function","name":"fillPrices","inputs":[{"name":"prices","type":"uint256[]","internalType":"uint256[]"},{"name":"weights","type":"uint256[]","internalType":"uint256[]"}],"outputs":[],"stateMutability":"nonpayable"},{"type":"function","name":"fillSymbolPrice","inputs":[{"name":"price","type":"string","internalType":"string"}],"outputs":[],"stateMutability":"nonpayable"},{"type":"function","name":"getPrice","inputs":[],"outputs":[{"name":"","type":"uint256","internalType":"uint256"}],"stateMutability":"view"},{"type":"function","name":"getPriceWithDecimals","inputs":[],"outputs":[{"name":"price","type":"uint256","internalType":"uint256"},{"name":"decimals","type":"uint8","internalType":"uint8"}],"stateMutability":"view"},{"type":"function","name":"getSymbolPrice","inputs":[],"outputs":[{"name":"","type":"string","internalType":"string"}],"stateMutability":"view"},{"type":"function","name":"getUpdateTimestamp","inputs":[],"outputs":[{"name":"","type":"uint256","internalType":"uint256"}],"stateMutability":"view"},{"type":"function","name":"initialize","inputs":[{"name":"_initialOwner","type":"address","internalType":"address"},{"name":"_oracleManager","type":"address","internalType":"address"}],"outputs":[],"stateMutability":"nonpayable"},{"type":"function","name":"isDataFresh","inputs":[{"name":"_maxAge","type":"uint256","internalType":"uint256"}],"outputs":[{"name":"","type":"bool","internalType":"bool"}],"stateMutability":"view"},{"type":"function","name":"marketPrice","inputs":[],"outputs":[{"name":"","type":"string","internalType":"string"}],"stateMutability":"view"},{"type":"function","name":"maxAge","inputs":[],"outputs":[{"name":"","type":"uint256","internalType":"uint256"}],"stateMutability":"view"},{"type":"function","name":"oracleManager","inputs":[],"outputs":[{"name":"","type":"address","internalType":"address"}],"stateMutability":"view"},{"type":"function","name":"owner","inputs":[],"outputs":[{"name":"","type":"address","internalType":"address"}],"stateMutability":"view"},{"type":"function","name":"renounceOwnership","inputs":[],"outputs":[],"stateMutability":"nonpayable"},{"type":"function","name":"setOracleManager","inputs":[{"name":"_oracleManager","type":"address","internalType":"address"}],"outputs":[],"stateMutability":"nonpayable"},{"type":"function","name":"transferOwnership","inputs":[{"name":"newOwner","type":"address","internalType":"address"}],"outputs":[],"stateMutability":"nonpayable"},{"type":"function","name":"updateTimestamp","inputs":[],"outputs":[{"name":"","type":"uint256","internalType":"uint256"}],"stateMutability":"view"},{"type":"event","name":"Initialized","inputs":[{"name":"version","type":"uint64","indexed":false,"internalType":"uint64"}],"anonymous":false},{"type":"event","name":"MarketPriceUpdated","inputs":[{"name":"oldPrice","type":"string","indexed":false,"internalType":"string"},{"name":"price","type":"string","indexed":false,"internalType":"string"},{"name":"timestamp","type":"uint256","indexed":false,"internalType":"uint256"}],"anonymous":false},{"type":"event","name":"OracleManagerUpdate","inputs":[{"name":"oldManagerAddress","type":"address","indexed":false,"internalType":"address"},{"name":"newManagerAddress","type":"address","indexed":false,"internalType":"address"}],"anonymous":false},{"type":"event","name":"OwnershipTransferred","inputs":[{"name":"previousOwner","type":"address","indexed":true,"internalType":"address"},{"name":"newOwner","type":"address","indexed":true,"internalType":"address"}],"anonymous":false},{"type":"event","name":"PriceUpdated","inputs":[{"name":"oldPrice","type":"uint256","indexed":false,"internalType":"uint256"},{"name":"newPrice","type":"uint256","indexed":false,"internalType":"uint256"},{"name":"nodeCount","type":"uint256","indexed":false,"internalType":"uint256"},{"name":"timestamp","type":"uint256","indexed":false,"internalType":"uint256"}],"anonymous":false},{"type":"error","name":"InvalidInitialization","inputs":[]},{"type":"error","name":"NotInitializing","inputs":[]},{"type":"error","name":"OwnableInvalidOwner","inputs":[{"name":"owner","type":"address","internalType":"address"}]},{"type":"error","name":"OwnableUnauthorizedAccount","inputs":[{"name":"account","type":"address","internalType":"address"}]}],"bytecode":{"object":"0x608060405234801561001057600080fd5b5061001961001e565b6100d0565b7ff0c57e16840df040f15088dc2f81fe391c3923bec73e23a9662efc9c229c6a00805468010000000000000000900460ff161561006e5760405163f92ee8a960e01b815260040160405180910390fd5b80546001600160401b03908116146100cd5780546001600160401b0319166001600160401b0390811782556040519081527fc7f505b2f371ae2175ee4913f4499e1f2633a7b5936321eed1cdaeb6115181d29060200160405180910390a15b50565b611099806100df6000396000f3fe608060405234801561001057600080fd5b50600436106101165760003560e01c8063715018a6116100a257806398d5fdca1161007157806398d5fdca1461022b578063ba1ae75b14610233578063e286b66414610256578063f1a640f81461025e578063f2fde38b1461027857600080fd5b8063715018a6146101c9578063831fa725146101d15780638da5cb5b146101e8578063929e2e081461021857600080fd5b80633a6b3e2d116100e95780633a6b3e2d1461016357806345a153881461016c578063485cc95514610181578063565d878c14610194578063687043c5146101bf57600080fd5b806304e93f6e1461011b5780630f07ce7b146101305780631c5be3d71461014757806328bb986c14610150575b600080fd5b61012e610129366004610b88565b61028b565b005b6002545b6040519081526020015b60405180910390f35b61013460025481565b61012e61015e366004610c0a565b6103ca565b61013460015481565b6101746104d8565b60405161013e9190610d01565b61012e61018f366004610d37565b610566565b6000546101a7906001600160a01b031681565b6040516001600160a01b03909116815260200161013e565b6101346201518081565b61012e61067e565b60015460408051918252600660208301520161013e565b7f9016d09d72d40fdae2fd8ceac6b6234c7706214fd39c1cd1e609a0528c199300546001600160a01b03166101a7565b61012e610226366004610d6a565b610692565b600154610134565b610246610241366004610d85565b61074a565b604051901515815260200161013e565b610174610763565b610266600681565b60405160ff909116815260200161013e565b61012e610286366004610d6a565b6107f5565b6000546001600160a01b031633146102be5760405162461bcd60e51b81526004016102b590610d9e565b60405180910390fd5b8261030b5760405162461bcd60e51b815260206004820152601d60248201527f4f7261636c65506f643a20656d7074792070726963657320617272617900000060448201526064016102b5565b82811461035a5760405162461bcd60e51b815260206004820152601a60248201527f4f7261636c65506f643a206c656e677468206d69736d6174636800000000000060448201526064016102b5565b600154600061036b86868686610833565b6001819055426002819055604080518581526020810184905290810188905260608101919091529091507fc6d3da45896ce1bca9d198309a2dbeea3c73a991748f8d88d796ffa06029de939060800160405180910390a1505050505050565b6000546001600160a01b031633146103f45760405162461bcd60e51b81526004016102b590610d9e565b60006003805461040390610de9565b80601f016020809104026020016040519081016040528092919081815260200182805461042f90610de9565b801561047c5780601f106104515761010080835404028352916020019161047c565b820191906000526020600020905b81548152906001019060200180831161045f57829003601f168201915b5050505050905081600390816104929190610e74565b504260028190556040517f2d61ba9f6e09d0b52de7637251a6d3681e5f26bd9de88995b0e5bbae55d38d9a916104cc918491600391610f34565b60405180910390a15050565b600380546104e590610de9565b80601f016020809104026020016040519081016040528092919081815260200182805461051190610de9565b801561055e5780601f106105335761010080835404028352916020019161055e565b820191906000526020600020905b81548152906001019060200180831161054157829003601f168201915b505050505081565b60006105706109ed565b805490915060ff600160401b820416159067ffffffffffffffff166000811580156105985750825b905060008267ffffffffffffffff1660011480156105b55750303b155b9050811580156105c3575080155b156105e15760405163f92ee8a960e01b815260040160405180910390fd5b845467ffffffffffffffff19166001178555831561060b57845460ff60401b1916600160401b1785555b61061487610a18565b600080546001600160a01b0319166001600160a01b038816179055831561067557845460ff60401b19168555604051600181527fc7f505b2f371ae2175ee4913f4499e1f2633a7b5936321eed1cdaeb6115181d29060200160405180910390a15b50505050505050565b610686610a29565b6106906000610a84565b565b61069a610a29565b6001600160a01b0381166106f05760405162461bcd60e51b815260206004820152601760248201527f4f7261636c65506f643a207a65726f206164647265737300000000000000000060448201526064016102b5565b600080546001600160a01b038381166001600160a01b031983168117909355604080519190921680825260208201939093527f4fa3394c69c77ebdd11178f49beb82f9fb98c08f03c354b555f536535bc8421e91016104cc565b6000816002544261075b9190610fee565b111592915050565b60606003805461077290610de9565b80601f016020809104026020016040519081016040528092919081815260200182805461079e90610de9565b80156107eb5780601f106107c0576101008083540402835291602001916107eb565b820191906000526020600020905b8154815290600101906020018083116107ce57829003601f168201915b5050505050905090565b6107fd610a29565b6001600160a01b03811661082757604051631e4fbdf760e01b8152600060048201526024016102b5565b61083081610a84565b50565b60008080805b8681101561098757600088888381811061085557610855611001565b90506020020135116108a95760405162461bcd60e51b815260206004820152601860248201527f4f7261636c65506f643a20696e76616c6964207072696365000000000000000060448201526064016102b5565b60008686838181106108bd576108bd611001565b90506020020135116109115760405162461bcd60e51b815260206004820152601960248201527f4f7261636c65506f643a20696e76616c6964207765696768740000000000000060448201526064016102b5565b85858281811061092357610923611001565b9050602002013588888381811061093c5761093c611001565b9050602002013561094d9190611017565b610957908461102e565b925085858281811061096b5761096b611001565b905060200201358261097d919061102e565b9150600101610839565b50600081116109d85760405162461bcd60e51b815260206004820152601c60248201527f4f7261636c65506f643a207a65726f20746f74616c207765696768740000000060448201526064016102b5565b6109e28183611041565b979650505050505050565b6000807ff0c57e16840df040f15088dc2f81fe391c3923bec73e23a9662efc9c229c6a005b92915050565b610a20610af5565b61083081610b1a565b33610a5b7f9016d09d72d40fdae2fd8ceac6b6234c7706214fd39c1cd1e609a0528c199300546001600160a01b031690565b6001600160a01b0316146106905760405163118cdaa760e01b81523360048201526024016102b5565b7f9016d09d72d40fdae2fd8ceac6b6234c7706214fd39c1cd1e609a0528c19930080546001600160a01b031981166001600160a01b03848116918217845560405192169182907f8be0079c531659141344cd1fd0a4f28419497f9722a3daafe3b4186f6b6457e090600090a3505050565b610afd610b22565b61069057604051631afcd79f60e31b815260040160405180910390fd5b6107fd610af5565b6000610b2c6109ed565b54600160401b900460ff16919050565b60008083601f840112610b4e57600080fd5b50813567ffffffffffffffff811115610b6657600080fd5b6020830191508360208260051b8501011115610b8157600080fd5b9250929050565b60008060008060408587031215610b9e57600080fd5b843567ffffffffffffffff80821115610bb657600080fd5b610bc288838901610b3c565b90965094506020870135915080821115610bdb57600080fd5b50610be887828801610b3c565b95989497509550505050565b634e487b7160e01b600052604160045260246000fd5b600060208284031215610c1c57600080fd5b813567ffffffffffffffff80821115610c3457600080fd5b818401915084601f830112610c4857600080fd5b813581811115610c5a57610c5a610bf4565b604051601f8201601f19908116603f01168101908382118183101715610c8257610c82610bf4565b81604052828152876020848701011115610c9b57600080fd5b826020860160208301376000928101602001929092525095945050505050565b6000815180845260005b81811015610ce157602081850181015186830182015201610cc5565b506000602082860101526020601f19601f83011685010191505092915050565b602081526000610d146020830184610cbb565b9392505050565b80356001600160a01b0381168114610d3257600080fd5b919050565b60008060408385031215610d4a57600080fd5b610d5383610d1b565b9150610d6160208401610d1b565b90509250929050565b600060208284031215610d7c57600080fd5b610d1482610d1b565b600060208284031215610d9757600080fd5b5035919050565b6020808252602b908201527f4f7261636c65506f643a2063616c6c6572206973206e6f7420746865206f726160408201526a31b6329036b0b730b3b2b960a91b606082015260800190565b600181811c90821680610dfd57607f821691505b602082108103610e1d57634e487b7160e01b600052602260045260246000fd5b50919050565b601f821115610e6f576000816000526020600020601f850160051c81016020861015610e4c5750805b601f850160051c820191505b81811015610e6b57828155600101610e58565b5050505b505050565b815167ffffffffffffffff811115610e8e57610e8e610bf4565b610ea281610e9c8454610de9565b84610e23565b602080601f831160018114610ed75760008415610ebf5750858301515b600019600386901b1c1916600185901b178555610e6b565b600085815260208120601f198616915b82811015610f0657888601518255948401946001909101908401610ee7565b5085821015610f245787850151600019600388901b60f8161c191681555b5050505050600190811b01905550565b606081526000610f476060830186610cbb565b60208382038185015260008654610f5d81610de9565b80855260018281168015610f785760018114610f9257610fc0565b60ff1984168787015282151560051b870186019450610fc0565b8a6000528560002060005b84811015610fb8578154898201890152908301908701610f9d565b880187019550505b50505050809350505050826040830152949350505050565b634e487b7160e01b600052601160045260246000fd5b81810381811115610a1257610a12610fd8565b634e487b7160e01b600052603260045260246000fd5b8082028115828204841417610a1257610a12610fd8565b80820180821115610a1257610a12610fd8565b60008261105e57634e487b7160e01b600052601260045260246000fd5b50049056fea2646970667358221220e3750fff33fd0ca6177807d9fc6a5f0ead5d0a877cac38faa3378da7d066c11f64736f6c63430008160033","linkReferences":{}},"methodIdentifiers":{"PRICE_DECIMALS()":"f1a640f8","aggregatedPrice()":"3a6b3e2d","fillPrices(uint256[],uint256[])":"04e93f6e","fillSymbolPrice(string)":"28bb986c","getPrice()":"98d5fdca","getPriceWithDecimals()":"831fa725","getSymbolPrice()":"e286b664","getUpdateTimestamp()":"0f07ce7b","initialize(address,address)":"485cc955","isDataFresh(uint256)":"ba1ae75b","marketPrice()":"45a15388","maxAge()":"687043c5","oracleManager()":"565d878c","owner()":"8da5cb5b","renounceOwnership()":"715018a6","setOracleManager(address)":"929e2e08","transferOwnership(address)":"f2fde38b","updateTimestamp()":"1c5be3d7"},"storageLayout":{"storage":[{"astId":47606,"contract":"src/base/OraclePod.sol:OraclePod","label":"oracleManager","offset":0,"slot":"0","type":"t_address"},{"astId":47608,"contract":"src/base/OraclePod.sol:OraclePod","label":"aggregatedPrice","offset":0,"slot":"1","type":"t_uint256"},{"astId":47610,"contract":"src/base/OraclePod.sol:OraclePod","label":"updateTimestamp","offset":0,"slot":"2","type":"t_uint256"},{"astId":47618,"contract":"src/base/OraclePod.sol:OraclePod","label":"marketPrice","offset":0,"slot":"3","type":"t_string_storage"},{"astId":47622,"contract":"src/base/OraclePod.sol:OraclePod","label":"__gap","offset":0,"slot":"4","type":"t_array(t_uint256)47_storage"}],"types":{"t_address":{"encoding":"inplace","label":"address","numberOfBytes":"20"},"t_array(t_uint256)47_storage":{"encoding":"inplace","label":"uint256[47]","numberOfBytes":"1504","base":"t_uint256"},"t_string_storage":{"encoding":"bytes","label":"string","numberOfBytes":"32"},"t_uint256":{"encoding":"inplace","label":"uint256","numberOfBytes":"32"}}},"id":47}