{"abi":[{"type":"constructor","inputs":[],"stateMutability":"nonpayable"},{"type":"function","name":"PUBKEY_REGISTRATION_TYPEHASH","inputs":[],"outputs":[{"name":"","type":"bytes32","internalType":"bytes32"}],"stateMutability":"view"},{"type":"function","name":"addOrRemoveBlsRegisterWhitelist","inputs":[{"name":"register","type":"address","internalType":"address"},{"name":"isAdd","type":"bool","internalType":"bool"}],"outputs":[],"stateMutability":"nonpayable"},{"type":"function","name":"apkHistory","inputs":[{"name":"","type":"uint256","internalType":"uint256"}],"outputs":[{"name":"apkHash","type":"bytes24","internalType":"bytes24"},{"name":"updateBlockNumber","type":"uint32","internalType":"uint32"},{"name":"nextUpdateBlockNumber","type":"uint32","internalType":"uint32"}],"stateMutability":"view"},{"type":"function","name":"blsRegisterWhitelist","inputs":[{"name":"","type":"address","internalType":"address"}],"outputs":[{"name":"","type":"bool","internalType":"bool"}],"stateMutability":"view"},{"type":"function","name":"checkSignatures","inputs":[{"name":"msgHash","type":"bytes32","internalType":"bytes32"},{"name":"referenceBlockNumber","type":"uint256","internalType":"uint256"},{"name":"params","type":"tuple","internalType":"struct IBLSApkRegistry.OracleNonSignerAndSignature","components":[{"name":"nonSignerPubkeys","type":"tuple[]","internalType":"struct BN254.G1Point[]","components":[{"name":"X","type":"uint256","internalType":"uint256"},{"name":"Y","type":"uint256","internalType":"uint256"}]},{"name":"apkG2","type":"tuple","internalType":"struct BN254.G2Point","components":[{"name":"X","type":"uint256[2]","internalType":"uint256[2]"},{"name":"Y","type":"uint256[2]","internalType":"uint256[2]"}]},{"name":"sigma","type":"tuple","internalType":"struct BN254.G1Point","components":[{"name":"X","type":"uint256","internalType":"uint256"},{"name":"Y","type":"uint256","internalType":"uint256"}]},{"name":"totalStake","type":"uint256","internalType":"uint256"}]}],"outputs":[{"name":"","type":"uint256","internalType":"uint256"},{"name":"","type":"bytes32","internalType":"bytes32"}],"stateMutability":"view"},{"type":"function","name":"currentApk","inputs":[],"outputs":[{"name":"X","type":"uint256","internalType":"uint256"},{"name":"Y","type":"uint256","internalType":"uint256"}],"stateMutability":"view"},{"type":"function","name":"deregisterOperator","inputs":[{"name":"operator","type":"address","internalType":"address"}],"outputs":[],"stateMutability":"nonpayable"},{"type":"function","name":"eip712Domain","inputs":[],"outputs":[{"name":"fields","type":"bytes1","internalType":"bytes1"},{"name":"name","type":"string","internalType":"string"},{"name":"version","type":"string","internalType":"string"},{"name":"chainId","type":"uint256","internalType":"uint256"},{"name":"verifyingContract","type":"address","internalType":"address"},{"name":"salt","type":"bytes32","internalType":"bytes32"},{"name":"extensions","type":"uint256[]","internalType":"uint256[]"}],"stateMutability":"view"},{"type":"function","name":"getPubkeyHash","inputs":[{"name":"operator","type":"address","internalType":"address"}],"outputs":[{"name":"","type":"bytes32","internalType":"bytes32"}],"stateMutability":"view"},{"type":"function","name":"getPubkeyRegMessageHash","inputs":[{"name":"operator","type":"address","internalType":"address"}],"outputs":[{"name":"","type":"tuple","internalType":"struct BN254.G1Point","components":[{"name":"X","type":"uint256","internalType":"uint256"},{"name":"Y","type":"uint256","internalType":"uint256"}]}],"stateMutability":"view"},{"type":"function","name":"getRegisteredPubkey","inputs":[{"name":"operator","type":"address","internalType":"address"}],"outputs":[{"name":"","type":"tuple","internalType":"struct BN254.G1Point","components":[{"name":"X","type":"uint256","internalType":"uint256"},{"name":"Y","type":"uint256","internalType":"uint256"}]},{"name":"","type":"bytes32","internalType":"bytes32"}],"stateMutability":"view"},{"type":"function","name":"initialize","inputs":[{"name":"_initialOwner","type":"address","internalType":"address"},{"name":"_whiteListAddress","type":"address","internalType":"address"},{"name":"_oracleManager","type":"address","internalType":"address"}],"outputs":[],"stateMutability":"nonpayable"},{"type":"function","name":"operatorIsRegister","inputs":[{"name":"","type":"address","internalType":"address"}],"outputs":[{"name":"","type":"bool","internalType":"bool"}],"stateMutability":"view"},{"type":"function","name":"operatorToPubkey","inputs":[{"name":"","type":"address","internalType":"address"}],"outputs":[{"name":"X","type":"uint256","internalType":"uint256"},{"name":"Y","type":"uint256","internalType":"uint256"}],"stateMutability":"view"},{"type":"function","name":"operatorToPubkeyHash","inputs":[{"name":"","type":"address","internalType":"address"}],"outputs":[{"name":"","type":"bytes32","internalType":"bytes32"}],"stateMutability":"view"},{"type":"function","name":"oracleManager","inputs":[],"outputs":[{"name":"","type":"address","internalType":"address"}],"stateMutability":"view"},{"type":"function","name":"owner","inputs":[],"outputs":[{"name":"","type":"address","internalType":"address"}],"stateMutability":"view"},{"type":"function","name":"pubkeyHashToOperator","inputs":[{"name":"","type":"bytes32","internalType":"bytes32"}],"outputs":[{"name":"","type":"address","internalType":"address"}],"stateMutability":"view"},{"type":"function","name":"registerBLSPublicKey","inputs":[{"name":"operator","type":"address","internalType":"address"},{"name":"params","type":"tuple","internalType":"struct IBLSApkRegistry.PubkeyRegistrationParams","components":[{"name":"pubkeyRegistrationSignature","type":"tuple","internalType":"struct BN254.G1Point","components":[{"name":"X","type":"uint256","internalType":"uint256"},{"name":"Y","type":"uint256","internalType":"uint256"}]},{"name":"pubkeyG1","type":"tuple","internalType":"struct BN254.G1Point","components":[{"name":"X","type":"uint256","internalType":"uint256"},{"name":"Y","type":"uint256","internalType":"uint256"}]},{"name":"pubkeyG2","type":"tuple","internalType":"struct BN254.G2Point","components":[{"name":"X","type":"uint256[2]","internalType":"uint256[2]"},{"name":"Y","type":"uint256[2]","internalType":"uint256[2]"}]}]},{"name":"pubkeyRegistrationMessageHash","type":"tuple","internalType":"struct BN254.G1Point","components":[{"name":"X","type":"uint256","internalType":"uint256"},{"name":"Y","type":"uint256","internalType":"uint256"}]}],"outputs":[{"name":"","type":"bytes32","internalType":"bytes32"}],"stateMutability":"nonpayable"},{"type":"function","name":"registerOperator","inputs":[{"name":"operator","type":"address","internalType":"address"}],"outputs":[],"stateMutability":"nonpayable"},{"type":"function","name":"renounceOwnership","inputs":[],"outputs":[],"stateMutability":"nonpayable"},{"type":"function","name":"totalNodes","inputs":[],"outputs":[{"name":"","type":"uint256","internalType":"uint256"}],"stateMutability":"view"},{"type":"function","name":"transferOwnership","inputs":[{"name":"newOwner","type":"address","internalType":"address"}],"outputs":[],"stateMutability":"nonpayable"},{"type":"function","name":"trySignatureAndApkVerification","inputs":[{"name":"msgHash","type":"bytes32","internalType":"bytes32"},{"name":"apk","type":"tuple","internalType":"struct BN254.G1Point","components":[{"name":"X","type":"uint256","internalType":"uint256"},{"name":"Y","type":"uint256","internalType":"uint256"}]},{"name":"apkG2","type":"tuple","internalType":"struct BN254.G2Point","components":[{"name":"X","type":"uint256[2]","internalType":"uint256[2]"},{"name":"Y","type":"uint256[2]","internalType":"uint256[2]"}]},{"name":"sigma","type":"tuple","internalType":"struct BN254.G1Point","components":[{"name":"X","type":"uint256","internalType":"uint256"},{"name":"Y","type":"uint256","internalType":"uint256"}]}],"outputs":[{"name":"pairingSuccessful","type":"bool","internalType":"bool"},{"name":"siganatureIsValid","type":"bool","internalType":"bool"}],"stateMutability":"view"},{"type":"function","name":"whiteListAddress","inputs":[],"outputs":[{"name":"","type":"address","internalType":"address"}],"stateMutability":"view"},{"type":"event","name":"EIP712DomainChanged","inputs":[],"anonymous":false},{"type":"event","name":"Initialized","inputs":[{"name":"version","type":"uint64","indexed":false,"internalType":"uint64"}],"anonymous":false},{"type":"event","name":"NewPubkeyRegistration","inputs":[{"name":"operator","type":"address","indexed":true,"internalType":"address"},{"name":"pubkeyG1","type":"tuple","indexed":false,"internalType":"struct BN254.G1Point","components":[{"name":"X","type":"uint256","internalType":"uint256"},{"name":"Y","type":"uint256","internalType":"uint256"}]},{"name":"pubkeyG2","type":"tuple","indexed":false,"internalType":"struct BN254.G2Point","components":[{"name":"X","type":"uint256[2]","internalType":"uint256[2]"},{"name":"Y","type":"uint256[2]","internalType":"uint256[2]"}]}],"anonymous":false},{"type":"event","name":"OperatorAdded","inputs":[{"name":"operator","type":"address","indexed":false,"internalType":"address"},{"name":"operatorId","type":"bytes32","indexed":false,"internalType":"bytes32"}],"anonymous":false},{"type":"event","name":"OperatorRemoved","inputs":[{"name":"operator","type":"address","indexed":false,"internalType":"address"},{"name":"operatorId","type":"bytes32","indexed":false,"internalType":"bytes32"}],"anonymous":false},{"type":"event","name":"OwnershipTransferred","inputs":[{"name":"previousOwner","type":"address","indexed":true,"internalType":"address"},{"name":"newOwner","type":"address","indexed":true,"internalType":"address"}],"anonymous":false},{"type":"error","name":"InvalidInitialization","inputs":[]},{"type":"error","name":"InvalidShortString","inputs":[]},{"type":"error","name":"NotInitializing","inputs":[]},{"type":"error","name":"OwnableInvalidOwner","inputs":[{"name":"owner","type":"address","internalType":"address"}]},{"type":"error","name":"OwnableUnauthorizedAccount","inputs":[{"name":"account","type":"address","internalType":"address"}]},{"type":"error","name":"StringTooLong","inputs":[{"name":"str","type":"string","internalType":"string"}]}],"bytecode":{"object":"0x6101606040523480156200001257600080fd5b50604080518082018252600e81526d424c5341706b526567697374727960901b6020808301919091528251808401909352600683526576302e302e3160d01b90830152906200006382600b6200011b565b610120526200007481600c6200011b565b61014052815160208084019190912060e052815190820120610100524660a0526200010260e05161010051604080517f8b73c3c69bb8fe3d512ecc4cf759cc79239f7b179b0ffacaa9a75d522b39400f60208201529081019290925260608201524660808201523060a082015260009060c00160405160208183030381529060405280519060200120905090565b60805250503060c0526200011562000154565b62000455565b60006020835110156200013b576200013383620001f6565b90506200014e565b8162000148848262000313565b5060ff90505b92915050565b60006200016062000242565b805490915068010000000000000000900460ff1615620001935760405163f92ee8a960e01b815260040160405180910390fd5b80546001600160401b0390811614620001f35780546001600160401b0319166001600160401b0390811782556040519081527fc7f505b2f371ae2175ee4913f4499e1f2633a7b5936321eed1cdaeb6115181d29060200160405180910390a15b50565b600080829050601f815111156200022d578260405163305a27a960e01b8152600401620002249190620003df565b60405180910390fd5b80516200023a8262000430565b179392505050565b6000807ff0c57e16840df040f15088dc2f81fe391c3923bec73e23a9662efc9c229c6a006200014e565b634e487b7160e01b600052604160045260246000fd5b600181811c908216806200029757607f821691505b602082108103620002b857634e487b7160e01b600052602260045260246000fd5b50919050565b601f8211156200030e576000816000526020600020601f850160051c81016020861015620002e95750805b601f850160051c820191505b818110156200030a57828155600101620002f5565b5050505b505050565b81516001600160401b038111156200032f576200032f6200026c565b620003478162000340845462000282565b84620002be565b602080601f8311600181146200037f5760008415620003665750858301515b600019600386901b1c1916600185901b1785556200030a565b600085815260208120601f198616915b82811015620003b0578886015182559484019460019091019084016200038f565b5085821015620003cf5787850151600019600388901b60f8161c191681555b5050505050600190811b01905550565b60006020808352835180602085015260005b818110156200040f57858101830151858201604001528201620003f1565b506000604082860101526040601f19601f8301168501019250505092915050565b80516020808301519190811015620002b85760001960209190910360031b1b16919050565b60805160a05160c05160e051610100516101205161014051612e9d620004b06000396000611ea101526000611e6f015260006123c001526000612398015260006122f30152600061231d015260006123470152612e9d6000f3fe608060405234801561001057600080fd5b50600436106101725760003560e01c80637ff81a87116100de578063b9305e3711610097578063d8cf98ca11610071578063d8cf98ca14610433578063de29fac014610446578063e8bb9ae614610466578063f2fde38b1461048f57600080fd5b8063b9305e37146103fa578063bf79ce581461040d578063c0c53b8b1461042057600080fd5b80637ff81a871461031557806384b0196e146103485780638da5cb5b146103635780639592d424146103935780639feab859146103aa578063b417b3e6146103d157600080fd5b806347f0c8531161013057806347f0c8531461024b5780634db7ae171461026b57806354d060091461028e578063565d878c146102b9578063626e0db5146102cc578063715018a61461030d57600080fd5b8062a1f4cb146101775780631499b662146101b8578063171f1d5b146101c657806318f7ef2c146101f05780632faea61c146102035780633682a45014610236575b600080fd5b61019e610185366004612705565b6004602052600090815260409020805460019091015482565b604080519283526020830191909152015b60405180910390f35b60065460075461019e919082565b6101d96101d436600461287a565b6104a2565b6040805192151583529015156020830152016101af565b61019e6101fe3660046128cb565b61062c565b610226610211366004612705565b600a6020526000908152604090205460ff1681565b60405190151581526020016101af565b610249610244366004612705565b6109a8565b005b61025e610259366004612705565b610b5c565b6040516101af91906129eb565b610226610279366004612705565b60056020526000908152604090205460ff1681565b6000546102a1906001600160a01b031681565b6040516001600160a01b0390911681526020016101af565b6001546102a1906001600160a01b031681565b6102df6102da366004612a02565b610be1565b6040805167ffffffffffffffff19909416845263ffffffff92831660208501529116908201526060016101af565b610249610c1e565b610328610323366004612705565b610c32565b6040805183518152602093840151938101939093528201526060016101af565b610350610d01565b6040516101af9796959493929190612a61565b7f9016d09d72d40fdae2fd8ceac6b6234c7706214fd39c1cd1e609a0528c199300546001600160a01b03166102a1565b61039c60095481565b6040519081526020016101af565b61039c7f2bd82124057f0913bc3b772ce7b83e8057c1ad1f3510fc83778be20f10ec5de681565b61039c6103df366004612705565b6001600160a01b031660009081526002602052604090205490565b610249610408366004612afa565b610d47565b61039c61041b366004612b36565b610e8e565b61024961042e366004612b93565b611398565b610249610441366004612705565b6114ce565b61039c610454366004612705565b60026020526000908152604090205481565b6102a1610474366004612a02565b6003602052600090815260409020546001600160a01b031681565b61024961049d366004612705565b611627565b60008060007f30644e72e131a029b85045b68181585d2833e84879b9709143e1f593f0000001878760000151886020015188600001516000600281106104ea576104ea612bd6565b60200201518951600160200201518a6020015160006002811061050f5761050f612bd6565b60200201518b6020015160016002811061052b5761052b612bd6565b602090810291909101518c518d8301516040516105889a99989796959401988952602089019790975260408801959095526060870193909352608086019190915260a085015260c084015260e08301526101008201526101200190565b6040516020818303038152906040528051906020012060001c6105ab9190612c02565b905061061e6105c46105bd8884611665565b86906116f6565b6105cc61178b565b610614610605856105ff604080518082018252600080825260209182015281518083019092526001825260029082015290565b90611665565b61060e8c61184b565b906116f6565b886201d4c06118da565b909890975095505050505050565b6000804363ffffffff16841061069d5760405162461bcd60e51b815260206004820152603c6024820152600080516020612e4883398151915260448201527f7265733a20696e76616c6964207265666572656e636520626c6f636b0000000060648201526084015b60405180910390fd5b8251516009546000906003906106b4906002612c2c565b6106be9190612c43565b905080826009546106cf9190612c57565b10156107415760405162461bcd60e51b81526020600482015260476024820152600080516020612e4883398151915260448201527f7265733a207369676e206e6f6465206c657373207468616e207468726573686f6064820152666c64206e6f646560c81b608482015260a401610694565b6040805180820190915260008082526020820152855151606090156108605786515167ffffffffffffffff81111561077b5761077b612727565b6040519080825280602002602001820160405280156107a4578160200160208202803683370190505b50905060005b87515181101561085a576107ec886000015182815181106107cd576107cd612bd6565b6020026020010151805160009081526020918201519091526040902090565b8282815181106107fe576107fe612bd6565b6020026020010181815250506108506108338960000151838151811061082657610826612bd6565b6020026020010151611af4565b6040805180820190915260065481526007546020820152906116f6565b92506001016107aa565b5061087a565b604080518082019091526006548152600754602082015291505b6000806108918b858b602001518c604001516104a2565b91509150816109025760405162461bcd60e51b81526020600482015260436024820152600080516020612e4883398151915260448201527f7265733a2070616972696e6720707265636f6d70696c652063616c6c206661696064820152621b195960ea1b608482015260a401610694565b806109635760405162461bcd60e51b81526020600482015260396024820152600080516020612e4883398151915260448201527f7265733a207369676e617475726520697320696e76616c6964000000000000006064820152608401610694565b60008a84604051602001610978929190612c6a565b60408051601f19818403018152919052805160209091012060608b01519950975050505050505050935093915050565b6001546001600160a01b031633146109d25760405162461bcd60e51b815260040161069490612ca6565b6001600160a01b038116610a3c5760405162461bcd60e51b815260206004820152603d6024820152600080516020612e0883398151915260448201527f4b65793a204f70657261746f72206973207a65726f20616464726573730000006064820152608401610694565b6001600160a01b03811660009081526005602052604090205460ff1615610ac55760405162461bcd60e51b81526020600482015260436024820152600080516020612e0883398151915260448201527f4b65793a204f70657261746f72206861766520616c72656164792072656769736064820152623a32b960e91b608482015260a401610694565b6000610ad082610c32565b509050610adc81611b8f565b600160096000828254610aef9190612d16565b90915550506001600160a01b0382166000818152600560209081526040808320805460ff191660011790556002825291829020548251938452908301527f1012e33559dd6c66686972872c5e7d4953b63b46a144935dd149c29819b67d5b91015b60405180910390a15050565b6040805180820190915260008082526020820152610bdb610bd67f2bd82124057f0913bc3b772ce7b83e8057c1ad1f3510fc83778be20f10ec5de684604051602001610bbb9291909182526001600160a01b0316602082015260400190565b60405160208183030381529060405280519060200120611d6f565b61184b565b92915050565b60088181548110610bf157600080fd5b600091825260209091200154604081901b915063ffffffff600160c01b8204811691600160e01b90041683565b610c26611d9c565b610c306000611df7565b565b60408051808201909152600080825260208201526001600160a01b0382166000818152600460209081526040808320815180830183528154815260019091015481840152938352600290915281205490919080610cf75760405162461bcd60e51b815260206004820152603e60248201527f424c5341706b52656769737472792e676574526567697374657265645075626b60448201527f65793a206f70657261746f72206973206e6f74207265676973746572656400006064820152608401610694565b9094909350915050565b600060608060008060006060610d15611e68565b610d1d611e9a565b60408051600080825260208201909252600f60f81b9b939a50919850469750309650945092509050565b6000546001600160a01b03163314610dd55760405162461bcd60e51b815260206004820152604560248201527f424c5341706b52656769737472792e6f6e6c7957686974654c6973744d616e6160448201527f6765723a2063616c6c6572206973206e6f74207768697465206c697374206164606482015264647265737360d81b608482015260a401610694565b6001600160a01b038216610e635760405162461bcd60e51b815260206004820152604960248201527f424c5341706b52656769737472792e6164644f7252656d6f766572426c73526560448201527f67697374657257686974656c6973743a206f70657261746f722061646472657360648201526873206973207a65726f60b81b608482015260a401610694565b6001600160a01b03919091166000908152600a60205260409020805460ff1916911515919091179055565b6000336001600160a01b03851614610efe576040805162461bcd60e51b8152602060048201526024810191909152600080516020612e0883398151915260448201527f4b65793a20746869732063616c6c6572206973206e6f74206f70657261746f726064820152608401610694565b336000908152600a602052604090205460ff16610f975760405162461bcd60e51b81526020600482015260596024820152600080516020612e0883398151915260448201527f4b65793a207468697320616464726573732068617665206e6f74207065726d6960648201527f7373696f6e20746f20726567697374657220626c73206b657900000000000000608482015260a401610694565b6000610fc5610fae36869003860160408701612d29565b805160009081526020918201519091526040902090565b90507fad3228b676f7d3cd4284a5443f17f1962b36e491b30a40b2405849e597ba5fb5810361104c576040805162461bcd60e51b8152602060048201526024810191909152600080516020612e0883398151915260448201527f4b65793a2063616e6e6f74207265676973746572207a65726f207075626b65796064820152608401610694565b6001600160a01b038516600090815260026020526040902054156110d65760405162461bcd60e51b81526020600482015260476024820152600080516020612e0883398151915260448201527f4b65793a206f70657261746f7220616c72656164792072656769737465726564606482015266207075626b657960c81b608482015260a401610694565b6000818152600360205260409020546001600160a01b03161561115a5760405162461bcd60e51b81526020600482015260426024820152600080516020612e0883398151915260448201527f4b65793a207075626c6963206b657920616c7265616479207265676973746572606482015261195960f21b608482015260a401610694565b604080516000917f30644e72e131a029b85045b68181585d2833e84879b9709143e1f593f0000001916111b3918835916020808b0135928b01359160608c01359160808d019160c08e01918d35918e8201359101612d45565b6040516020818303038152906040528051906020012060001c6111d69190612c02565b90506112646112036111f4836105ff368a90038a0160408b01612d29565b61060e36899003890189612d29565b61120b61178b565b61124d61123e856105ff604080518082018252600080825260209182015281518083019092526001825260029082015290565b61060e368a90038a018a612d29565b61125f368a90038a0160808b01612d87565b611ec7565b6112ff5760405162461bcd60e51b815260206004820152606c6024820152600080516020612e0883398151915260448201527f4b65793a2065697468657220746865204731207369676e61747572652069732060648201527f77726f6e672c206f7220473120616e642047322070726976617465206b65792060848201526b0c8de40dcdee840dac2e8c6d60a31b60a482015260c401610694565b6001600160a01b03861660008181526004602090815260408083208982018035825560608b01356001909201919091556002835281842087905586845260039092529182902080546001600160a01b0319168417905590517fe3fb6613af2e8930cf85d47fcf6db10192224a64c6cbe8023e0eee1ba3828041916113879160808a0190612da3565b60405180910390a250949350505050565b60006113a261212b565b805490915060ff600160401b820416159067ffffffffffffffff166000811580156113ca5750825b905060008267ffffffffffffffff1660011480156113e75750303b155b9050811580156113f5575080155b156114135760405163f92ee8a960e01b815260040160405180910390fd5b845467ffffffffffffffff19166001178555831561143d57845460ff60401b1916600160401b1785555b61144688612154565b600080546001600160a01b03808a166001600160a01b031992831617909255600180549289169290911691909117905561147e612165565b83156114c457845460ff60401b19168555604051600181527fc7f505b2f371ae2175ee4913f4499e1f2633a7b5936321eed1cdaeb6115181d29060200160405180910390a15b5050505050505050565b6001546001600160a01b031633146114f85760405162461bcd60e51b815260040161069490612ca6565b6001600160a01b03811660009081526005602052604090205460ff166115825760405162461bcd60e51b81526020600482015260456024820152600080516020612e0883398151915260448201527f4b65793a204f70657261746f72206861766520616c726561647920646572656760648201526434b9ba32b960d91b608482015260a401610694565b600061158d82610c32565b5090506115a161159c82611af4565b611b8f565b6001600160a01b0382166000908152600560205260408120805460ff1916905560098054600192906115d4908490612c57565b90915550506001600160a01b038216600081815260026020908152604091829020548251938452908301527fd7fc6178490520705355c7c3941d247da7890efa312e3366fe195e176c0e9e809101610b50565b61162f611d9c565b6001600160a01b03811661165957604051631e4fbdf760e01b815260006004820152602401610694565b61166281611df7565b50565b6040805180820190915260008082526020820152611681612614565b835181526020808501519082015260408082018490526000908360608460076107d05a03fa905080806116b057fe5b50806116ee5760405162461bcd60e51b815260206004820152600d60248201526c1958cb5b5d5b0b59985a5b1959609a1b6044820152606401610694565b505092915050565b6040805180820190915260008082526020820152611712612632565b835181526020808501518183015283516040808401919091529084015160608301526000908360808460066107d05a03fa9050808061174d57fe5b50806116ee5760405162461bcd60e51b815260206004820152600d60248201526c1958cb5859190b59985a5b1959609a1b6044820152606401610694565b611793612650565b50604080516080810182527f198e9393920d483a7260bfb731fb5d25f1aa493335a9e71297e485b7aef312c28183019081527f1800deef121f1e76426a00665e5c4479674322d4f75edadd46debd5cd992f6ed6060830152815281518083019092527f275dc4a288d1afb3cbb1ac09187524c7db36395df7be3b99e673b13a075a65ec82527f1d9befcd05a5323e6da4d435f3b617cdb3af83285c2df711ef39c01571827f9d60208381019190915281019190915290565b60408051808201909152600080825260208201526000808061187b600080516020612e2883398151915286612c02565b90505b61188781612264565b9093509150600080516020612e2883398151915282830983036118c0576040805180820190915290815260208101919091529392505050565b600080516020612e2883398151915260018208905061187e565b60408051808201825286815260208082018690528251808401909352868352820184905260009182919061190c612675565b60005b6002811015611ac7576000611925826006612c2c565b905084826002811061193957611939612bd6565b6020020151518361194b836000612d16565b600c811061195b5761195b612bd6565b602002015284826002811061197257611972612bd6565b602002015160200151838260016119899190612d16565b600c811061199957611999612bd6565b60200201528382600281106119b0576119b0612bd6565b60200201515151836119c3836002612d16565b600c81106119d3576119d3612bd6565b60200201528382600281106119ea576119ea612bd6565b6020020151516001602002015183611a03836003612d16565b600c8110611a1357611a13612bd6565b6020020152838260028110611a2a57611a2a612bd6565b602002015160200151600060028110611a4557611a45612bd6565b602002015183611a56836004612d16565b600c8110611a6657611a66612bd6565b6020020152838260028110611a7d57611a7d612bd6565b602002015160200151600160028110611a9857611a98612bd6565b602002015183611aa9836005612d16565b600c8110611ab957611ab9612bd6565b60200201525060010161190f565b50611ad0612694565b60006020826101808560088cfa9151919c9115159b50909950505050505050505050565b60408051808201909152600080825260208201528151158015611b1957506020820151155b15611b37575050604080518082019091526000808252602082015290565b604051806040016040528083600001518152602001600080516020612e288339815191528460200151611b6a9190612c02565b611b8290600080516020612e28833981519152612c57565b905292915050565b919050565b60408051808201909152600080825260208201526008546000819003611c1d5760405162461bcd60e51b815260206004820152603760248201527f424c5341706b52656769737472792e5f70726f6365737341706b55706461746560448201527f3a2071756f72756d20646f6573206e6f742065786973740000000000000000006064820152608401610694565b6040805180820190915260065481526007546020820152611c3e90846116f6565b80516006819055602080830180516007556000928352519052604081209193506008611c6b600185612c57565b81548110611c7b57611c7b612bd6565b6000918252602090912001805490915063ffffffff438116600160c01b9092041603611cba5780546001600160c01b031916604083901c178155611d68565b805463ffffffff438116600160e01b8181026001600160e01b039485161785556040805160608101825267ffffffffffffffff198816815260208101938452600081830181815260088054600181018255925291517ff3f7a9fe364faab93b216da50a3214154f22a0a2b415b23a84c8169e8b636ee3909101805495519251871690940291909516600160c01b026001600160e01b0319949094169490911c93909317919091179092161790555b5050505050565b6000610bdb611d7c6122e6565b8360405161190160f01b8152600281019290925260228201526042902090565b33611dce7f9016d09d72d40fdae2fd8ceac6b6234c7706214fd39c1cd1e609a0528c199300546001600160a01b031690565b6001600160a01b031614610c305760405163118cdaa760e01b8152336004820152602401610694565b7f9016d09d72d40fdae2fd8ceac6b6234c7706214fd39c1cd1e609a0528c19930080546001600160a01b031981166001600160a01b03848116918217845560405192169182907f8be0079c531659141344cd1fd0a4f28419497f9722a3daafe3b4186f6b6457e090600090a3505050565b6060611e957f0000000000000000000000000000000000000000000000000000000000000000600b612411565b905090565b6060611e957f0000000000000000000000000000000000000000000000000000000000000000600c612411565b604080518082018252858152602080820185905282518084019093528583528201839052600091611ef6612675565b60005b60028110156120b1576000611f0f826006612c2c565b9050848260028110611f2357611f23612bd6565b60200201515183611f35836000612d16565b600c8110611f4557611f45612bd6565b6020020152848260028110611f5c57611f5c612bd6565b60200201516020015183826001611f739190612d16565b600c8110611f8357611f83612bd6565b6020020152838260028110611f9a57611f9a612bd6565b6020020151515183611fad836002612d16565b600c8110611fbd57611fbd612bd6565b6020020152838260028110611fd457611fd4612bd6565b6020020151516001602002015183611fed836003612d16565b600c8110611ffd57611ffd612bd6565b602002015283826002811061201457612014612bd6565b60200201516020015160006002811061202f5761202f612bd6565b602002015183612040836004612d16565b600c811061205057612050612bd6565b602002015283826002811061206757612067612bd6565b60200201516020015160016002811061208257612082612bd6565b602002015183612093836005612d16565b600c81106120a3576120a3612bd6565b602002015250600101611ef9565b506120ba612694565b60006020826101808560086107d05a03fa905080806120d557fe5b508061211b5760405162461bcd60e51b81526020600482015260156024820152741c185a5c9a5b99cb5bdc18dbd9194b59985a5b1959605a1b6044820152606401610694565b5051151598975050505050505050565b6000807ff0c57e16840df040f15088dc2f81fe391c3923bec73e23a9662efc9c229c6a00610bdb565b61215c6124bd565b611662816124e2565b600854156121ce5760405162461bcd60e51b815260206004820152603060248201527f424c5341706b52656769737472792e696e697469616c697a6541706b3a20617060448201526f6b20616c72656164792065786973747360801b6064820152608401610694565b6040805160608101825260008082524363ffffffff9081166020840190815283850183815260088054600181018255945293517ff3f7a9fe364faab93b216da50a3214154f22a0a2b415b23a84c8169e8b636ee39093018054915194519390951c6001600160e01b031990911617600160c01b93821693909302929092176001600160e01b0316600160e01b9190921602179055565b60008080600080516020612e288339815191526003600080516020612e2883398151915286600080516020612e288339815191528889090908905060006122da827f0c19139cb84c680a6e14116da060561765e05aa45a1c72a34f082305b61f3f52600080516020612e288339815191526124ea565b91959194509092505050565b6000306001600160a01b037f00000000000000000000000000000000000000000000000000000000000000001614801561233f57507f000000000000000000000000000000000000000000000000000000000000000046145b1561236957507f000000000000000000000000000000000000000000000000000000000000000090565b611e95604080517f8b73c3c69bb8fe3d512ecc4cf759cc79239f7b179b0ffacaa9a75d522b39400f60208201527f0000000000000000000000000000000000000000000000000000000000000000918101919091527f000000000000000000000000000000000000000000000000000000000000000060608201524660808201523060a082015260009060c00160405160208183030381529060405280519060200120905090565b606060ff831461242b5761242483612593565b9050610bdb565b81805461243790612dcd565b80601f016020809104026020016040519081016040528092919081815260200182805461246390612dcd565b80156124b05780601f10612485576101008083540402835291602001916124b0565b820191906000526020600020905b81548152906001019060200180831161249357829003601f168201915b5050505050905092915050565b6124c56125d2565b610c3057604051631afcd79f60e31b815260040160405180910390fd5b61162f6124bd565b6000806124f5612694565b6124fd6126b2565b602080825281810181905260408201819052606082018890526080820187905260a082018690528260c08360056107d05a03fa9250828061253a57fe5b50826125885760405162461bcd60e51b815260206004820152601a60248201527f424e3235342e6578704d6f643a2063616c6c206661696c7572650000000000006044820152606401610694565b505195945050505050565b606060006125a0836125ec565b604080516020808252818301909252919250600091906020820181803683375050509182525060208101929092525090565b60006125dc61212b565b54600160401b900460ff16919050565b600060ff8216601f811115610bdb57604051632cd44ac360e21b815260040160405180910390fd5b60405180606001604052806003906020820280368337509192915050565b60405180608001604052806004906020820280368337509192915050565b60405180604001604052806126636126d0565b81526020016126706126d0565b905290565b604051806101800160405280600c906020820280368337509192915050565b60405180602001604052806001906020820280368337509192915050565b6040518060c001604052806006906020820280368337509192915050565b60405180604001604052806002906020820280368337509192915050565b80356001600160a01b0381168114611b8a57600080fd5b60006020828403121561271757600080fd5b612720826126ee565b9392505050565b634e487b7160e01b600052604160045260246000fd5b6040805190810167ffffffffffffffff8111828210171561276057612760612727565b60405290565b6040516080810167ffffffffffffffff8111828210171561276057612760612727565b604051601f8201601f1916810167ffffffffffffffff811182821017156127b2576127b2612727565b604052919050565b6000604082840312156127cc57600080fd5b6127d461273d565b9050813581526020820135602082015292915050565b600082601f8301126127fb57600080fd5b61280361273d565b80604084018581111561281557600080fd5b845b8181101561282f578035845260209384019301612817565b509095945050505050565b60006080828403121561284c57600080fd5b61285461273d565b905061286083836127ea565b815261286f83604084016127ea565b602082015292915050565b600080600080610120858703121561289157600080fd5b843593506128a286602087016127ba565b92506128b1866060870161283a565b91506128c08660e087016127ba565b905092959194509250565b6000806000606084860312156128e057600080fd5b83359250602080850135925060408086013567ffffffffffffffff8082111561290857600080fd5b90870190610100828a03121561291d57600080fd5b612925612766565b82358281111561293457600080fd5b8301601f81018b1361294557600080fd5b80358381111561295757612957612727565b612965878260051b01612789565b818152878101945060069190911b82018701908c82111561298557600080fd5b918701915b818310156129ab5761299c8d846127ba565b8552938701939186019161298a565b8352506129bc90508a84870161283a565b858201526129cd8a60a085016127ba565b604082015260e0830135606082015280955050505050509250925092565b815181526020808301519082015260408101610bdb565b600060208284031215612a1457600080fd5b5035919050565b6000815180845260005b81811015612a4157602081850181015186830182015201612a25565b506000602082860101526020601f19601f83011685010191505092915050565b60ff60f81b881681526000602060e06020840152612a8260e084018a612a1b565b8381036040850152612a94818a612a1b565b606085018990526001600160a01b038816608086015260a0850187905284810360c08601528551808252602080880193509091019060005b81811015612ae857835183529284019291840191600101612acc565b50909c9b505050505050505050505050565b60008060408385031215612b0d57600080fd5b612b16836126ee565b915060208301358015158114612b2b57600080fd5b809150509250929050565b6000806000838503610160811215612b4d57600080fd5b612b56856126ee565b9350610100601f1982011215612b6b57600080fd5b602085019250604061011f1982011215612b8457600080fd5b50610120840190509250925092565b600080600060608486031215612ba857600080fd5b612bb1846126ee565b9250612bbf602085016126ee565b9150612bcd604085016126ee565b90509250925092565b634e487b7160e01b600052603260045260246000fd5b634e487b7160e01b600052601260045260246000fd5b600082612c1157612c11612bec565b500690565b634e487b7160e01b600052601160045260246000fd5b8082028115828204841417610bdb57610bdb612c16565b600082612c5257612c52612bec565b500490565b81810381811115610bdb57610bdb612c16565b8281526000602080830184516020860160005b82811015612c9957815184529284019290840190600101612c7d565b5091979650505050505050565b6020808252604a908201527f424c5341706b52656769737472792e6f6e6c794f7261636c654d616e6167657260408201527f3a2063616c6c6572206973206e6f7420746865206f7261636c65206d616e61676060820152696572206164647265737360b01b608082015260a00190565b80820180821115610bdb57610bdb612c16565b600060408284031215612d3b57600080fd5b61272083836127ba565b888152876020820152866040820152856060820152604085608083013760408460c0830137610100810192909252610120820152610140019695505050505050565b600060808284031215612d9957600080fd5b612720838361283a565b823581526020808401359082015260c0810160408381840137604080840160808401379392505050565b600181811c90821680612de157607f821691505b602082108103612e0157634e487b7160e01b600052602260045260246000fd5b5091905056fe424c5341706b52656769737472792e7265676973746572424c535075626c696330644e72e131a029b85045b68181585d97816a916871ca8d3c208c16d87cfd47424c535369676e6174757265436865636b65722e636865636b5369676e617475a26469706673582212206daaa046ebdd34c924cf88818e3cf412d056a99746969d204a0f2c72bdcb47ce64736f6c63430008160033","linkReferences":{}},"methodIdentifiers":{"PUBKEY_REGISTRATION_TYPEHASH()":"9feab859","addOrRemoveBlsRegisterWhitelist(address,bool)":"b9305e37","apkHistory(uint256)":"626e0db5","blsRegisterWhitelist(address)":"2faea61c","checkSignatures(bytes32,uint256,((uint256,uint256)[],(uint256[2],uint256[2]),(uint256,uint256),uint256))":"18f7ef2c","currentApk()":"1499b662","deregisterOperator(address)":"d8cf98ca","eip712Domain()":"84b0196e","getPubkeyHash(address)":"b417b3e6","getPubkeyRegMessageHash(address)":"47f0c853","getRegisteredPubkey(address)":"7ff81a87","initialize(address,address,address)":"c0c53b8b","operatorIsRegister(address)":"4db7ae17","operatorToPubkey(address)":"00a1f4cb","operatorToPubkeyHash(address)":"de29fac0","oracleManager()":"565d878c","owner()":"8da5cb5b","pubkeyHashToOperator(bytes32)":"e8bb9ae6","registerBLSPublicKey(address,((uint256,uint256),(uint256,uint256),(uint256[2],uint256[2])),(uint256,uint256))":"bf79ce58","registerOperator(address)":"3682a450","renounceOwnership()":"715018a6","totalNodes()":"9592d424","transferOwnership(address)":"f2fde38b","trySignatureAndApkVerification(bytes32,(uint256,uint256),(uint256[2],uint256[2]),(uint256,uint256))":"171f1d5b","whiteListAddress()":"54d06009"},"storageLayout":{"storage":[{"astId":48480,"contract":"src/bls/BLSApkRegistry.sol:BLSApkRegistry","label":"whiteListAddress","offset":0,"slot":"0","type":"t_address"},{"astId":48483,"contract":"src/bls/BLSApkRegistry.sol:BLSApkRegistry","label":"oracleManager","offset":0,"slot":"1","type":"t_address"},{"astId":48487,"contract":"src/bls/BLSApkRegistry.sol:BLSApkRegistry","label":"operatorToPubkeyHash","offset":0,"slot":"2","type":"t_mapping(t_address,t_bytes32)"},{"astId":48491,"contract":"src/bls/BLSApkRegistry.sol:BLSApkRegistry","label":"pubkeyHashToOperator","offset":0,"slot":"3","type":"t_mapping(t_bytes32,t_address)"},{"astId":48496,"contract":"src/bls/BLSApkRegistry.sol:BLSApkRegistry","label":"operatorToPubkey","offset":0,"slot":"4","type":"t_mapping(t_address,t_struct(G1Point)49287_storage)"},{"astId":48500,"contract":"src/bls/BLSApkRegistry.sol:BLSApkRegistry","label":"operatorIsRegister","offset":0,"slot":"5","type":"t_mapping(t_address,t_bool)"},{"astId":48503,"contract":"src/bls/BLSApkRegistry.sol:BLSApkRegistry","label":"currentApk","offset":0,"slot":"6","type":"t_struct(G1Point)49287_storage"},{"astId":48507,"contract":"src/bls/BLSApkRegistry.sol:BLSApkRegistry","label":"apkHistory","offset":0,"slot":"8","type":"t_array(t_struct(ApkUpdate)48968_storage)dyn_storage"},{"astId":48509,"contract":"src/bls/BLSApkRegistry.sol:BLSApkRegistry","label":"totalNodes","offset":0,"slot":"9","type":"t_uint256"},{"astId":48513,"contract":"src/bls/BLSApkRegistry.sol:BLSApkRegistry","label":"blsRegisterWhitelist","offset":0,"slot":"10","type":"t_mapping(t_address,t_bool)"},{"astId":42768,"contract":"src/bls/BLSApkRegistry.sol:BLSApkRegistry","label":"_nameFallback","offset":0,"slot":"11","type":"t_string_storage"},{"astId":42770,"contract":"src/bls/BLSApkRegistry.sol:BLSApkRegistry","label":"_versionFallback","offset":0,"slot":"12","type":"t_string_storage"}],"types":{"t_address":{"encoding":"inplace","label":"address","numberOfBytes":"20"},"t_array(t_struct(ApkUpdate)48968_storage)dyn_storage":{"encoding":"dynamic_array","label":"struct IBLSApkRegistry.ApkUpdate[]","numberOfBytes":"32","base":"t_struct(ApkUpdate)48968_storage"},"t_bool":{"encoding":"inplace","label":"bool","numberOfBytes":"1"},"t_bytes24":{"encoding":"inplace","label":"bytes24","numberOfBytes":"24"},"t_bytes32":{"encoding":"inplace","label":"bytes32","numberOfBytes":"32"},"t_mapping(t_address,t_bool)":{"encoding":"mapping","key":"t_address","label":"mapping(address => bool)","numberOfBytes":"32","value":"t_bool"},"t_mapping(t_address,t_bytes32)":{"encoding":"mapping","key":"t_address","label":"mapping(address => bytes32)","numberOfBytes":"32","value":"t_bytes32"},"t_mapping(t_address,t_struct(G1Point)49287_storage)":{"encoding":"mapping","key":"t_address","label":"mapping(address => struct BN254.G1Point)","numberOfBytes":"32","value":"t_struct(G1Point)49287_storage"},"t_mapping(t_bytes32,t_address)":{"encoding":"mapping","key":"t_bytes32","label":"mapping(bytes32 => address)","numberOfBytes":"32","value":"t_address"},"t_string_storage":{"encoding":"bytes","label":"string","numberOfBytes":"32"},"t_struct(ApkUpdate)48968_storage":{"encoding":"inplace","label":"struct IBLSApkRegistry.ApkUpdate","numberOfBytes":"32","members":[{"astId":48963,"contract":"src/bls/BLSApkRegistry.sol:BLSApkRegistry","label":"apkHash","offset":0,"slot":"0","type":"t_bytes24"},{"astId":48965,"contract":"src/bls/BLSApkRegistry.sol:BLSApkRegistry","label":"updateBlockNumber","offset":24,"slot":"0","type":"t_uint32"},{"astId":48967,"contract":"src/bls/BLSApkRegistry.sol:BLSApkRegistry","label":"nextUpdateBlockNumber","offset":28,"slot":"0","type":"t_uint32"}]},"t_struct(G1Point)49287_storage":{"encoding":"inplace","label":"struct BN254.G1Point","numberOfBytes":"64","members":[{"astId":49284,"contract":"src/bls/BLSApkRegistry.sol:BLSApkRegistry","label":"X","offset":0,"slot":"0","type":"t_uint256"},{"astId":49286,"contract":"src/bls/BLSApkRegistry.sol:BLSApkRegistry","label":"Y","offset":0,"slot":"1","type":"t_uint256"}]},"t_uint256":{"encoding":"inplace","label":"uint256","numberOfBytes":"32"},"t_uint32":{"encoding":"inplace","label":"uint32","numberOfBytes":"4"}}},"id":49}